{
  "_format": "hh-sol-artifact-1",
  "contractName": "BlockID",
  "sourceName": "contracts/BlockID.sol",
  "abi": [
    {
      "inputs": [
        {
          "internalType": "address",
          "name": "_adminWallet",
          "type": "address"
        }
      ],
      "stateMutability": "nonpayable",
      "type": "constructor"
    },
    {
      "inputs": [
        {
          "internalType": "address",
          "name": "owner",
          "type": "address"
        }
      ],
      "name": "OwnableInvalidOwner",
      "type": "error"
    },
    {
      "inputs": [
        {
          "internalType": "address",
          "name": "account",
          "type": "address"
        }
      ],
      "name": "OwnableUnauthorizedAccount",
      "type": "error"
    },
    {
      "anonymous": false,
      "inputs": [
        {
          "indexed": true,
          "internalType": "address",
          "name": "oldAdmin",
          "type": "address"
        },
        {
          "indexed": true,
          "internalType": "address",
          "name": "newAdmin",
          "type": "address"
        }
      ],
      "name": "AdminChanged",
      "type": "event"
    },
    {
      "anonymous": false,
      "inputs": [
        {
          "indexed": true,
          "internalType": "uint256",
          "name": "requestId",
          "type": "uint256"
        },
        {
          "indexed": true,
          "internalType": "uint256",
          "name": "idNumber",
          "type": "uint256"
        },
        {
          "indexed": true,
          "internalType": "address",
          "name": "approvedBy",
          "type": "address"
        }
      ],
      "name": "IDRequestApproved",
      "type": "event"
    },
    {
      "anonymous": false,
      "inputs": [
        {
          "indexed": true,
          "internalType": "uint256",
          "name": "requestId",
          "type": "uint256"
        },
        {
          "indexed": true,
          "internalType": "address",
          "name": "rejectedBy",
          "type": "address"
        },
        {
          "indexed": false,
          "internalType": "string",
          "name": "reason",
          "type": "string"
        }
      ],
      "name": "IDRequestRejected",
      "type": "event"
    },
    {
      "anonymous": false,
      "inputs": [
        {
          "indexed": true,
          "internalType": "uint256",
          "name": "requestId",
          "type": "uint256"
        },
        {
          "indexed": true,
          "internalType": "address",
          "name": "requester",
          "type": "address"
        },
        {
          "indexed": false,
          "internalType": "bytes32",
          "name": "uniqueIdentityHash",
          "type": "bytes32"
        }
      ],
      "name": "IDRequested",
      "type": "event"
    },
    {
      "anonymous": false,
      "inputs": [
        {
          "indexed": true,
          "internalType": "uint256",
          "name": "idNumber",
          "type": "uint256"
        },
        {
          "indexed": true,
          "internalType": "address",
          "name": "owner",
          "type": "address"
        },
        {
          "indexed": false,
          "internalType": "string",
          "name": "idType",
          "type": "string"
        },
        {
          "indexed": false,
          "internalType": "bytes32",
          "name": "uniqueIdentityHash",
          "type": "bytes32"
        }
      ],
      "name": "IdentityCreated",
      "type": "event"
    },
    {
      "anonymous": false,
      "inputs": [
        {
          "indexed": true,
          "internalType": "uint256",
          "name": "idNumber",
          "type": "uint256"
        },
        {
          "indexed": true,
          "internalType": "address",
          "name": "revokedBy",
          "type": "address"
        }
      ],
      "name": "IdentityRevoked",
      "type": "event"
    },
    {
      "anonymous": false,
      "inputs": [
        {
          "indexed": true,
          "internalType": "uint256",
          "name": "idNumber",
          "type": "uint256"
        },
        {
          "indexed": true,
          "internalType": "address",
          "name": "verifier",
          "type": "address"
        }
      ],
      "name": "IdentityVerified",
      "type": "event"
    },
    {
      "anonymous": false,
      "inputs": [
        {
          "indexed": true,
          "internalType": "address",
          "name": "previousOwner",
          "type": "address"
        },
        {
          "indexed": true,
          "internalType": "address",
          "name": "newOwner",
          "type": "address"
        }
      ],
      "name": "OwnershipTransferred",
      "type": "event"
    },
    {
      "anonymous": false,
      "inputs": [
        {
          "indexed": true,
          "internalType": "address",
          "name": "verifier",
          "type": "address"
        }
      ],
      "name": "VerifierAdded",
      "type": "event"
    },
    {
      "anonymous": false,
      "inputs": [
        {
          "indexed": true,
          "internalType": "address",
          "name": "verifier",
          "type": "address"
        }
      ],
      "name": "VerifierRemoved",
      "type": "event"
    },
    {
      "inputs": [
        {
          "internalType": "address",
          "name": "verifier",
          "type": "address"
        }
      ],
      "name": "addVerifier",
      "outputs": [],
      "stateMutability": "nonpayable",
      "type": "function"
    },
    {
      "inputs": [
        {
          "internalType": "uint256",
          "name": "requestId",
          "type": "uint256"
        },
        {
          "internalType": "uint256",
          "name": "expiryDuration",
          "type": "uint256"
        }
      ],
      "name": "approveIDRequest",
      "outputs": [
        {
          "internalType": "uint256",
          "name": "",
          "type": "uint256"
        }
      ],
      "stateMutability": "nonpayable",
      "type": "function"
    },
    {
      "inputs": [
        {
          "internalType": "address",
          "name": "_newAdmin",
          "type": "address"
        }
      ],
      "name": "changeAdmin",
      "outputs": [],
      "stateMutability": "nonpayable",
      "type": "function"
    },
    {
      "inputs": [
        {
          "internalType": "address",
          "name": "owner",
          "type": "address"
        },
        {
          "internalType": "string",
          "name": "ipfsHash",
          "type": "string"
        },
        {
          "internalType": "uint256",
          "name": "expiryDuration",
          "type": "uint256"
        },
        {
          "internalType": "string",
          "name": "idType",
          "type": "string"
        },
        {
          "internalType": "bytes32",
          "name": "uniqueHash",
          "type": "bytes32"
        }
      ],
      "name": "createIdentity",
      "outputs": [
        {
          "internalType": "uint256",
          "name": "",
          "type": "uint256"
        }
      ],
      "stateMutability": "nonpayable",
      "type": "function"
    },
    {
      "inputs": [],
      "name": "getAdmin",
      "outputs": [
        {
          "internalType": "address",
          "name": "",
          "type": "address"
        }
      ],
      "stateMutability": "view",
      "type": "function"
    },
    {
      "inputs": [
        {
          "internalType": "uint256",
          "name": "idNumber",
          "type": "uint256"
        }
      ],
      "name": "getIdentity",
      "outputs": [
        {
          "internalType": "address",
          "name": "owner",
          "type": "address"
        },
        {
          "internalType": "string",
          "name": "ipfsHash",
          "type": "string"
        },
        {
          "internalType": "uint256",
          "name": "createdAt",
          "type": "uint256"
        },
        {
          "internalType": "uint256",
          "name": "expiresAt",
          "type": "uint256"
        },
        {
          "internalType": "bool",
          "name": "isVerified",
          "type": "bool"
        },
        {
          "internalType": "string",
          "name": "idType",
          "type": "string"
        },
        {
          "internalType": "bytes32",
          "name": "uniqueIdentityHash",
          "type": "bytes32"
        }
      ],
      "stateMutability": "view",
      "type": "function"
    },
    {
      "inputs": [
        {
          "internalType": "bytes32",
          "name": "uniqueHash",
          "type": "bytes32"
        }
      ],
      "name": "getIdentityByHash",
      "outputs": [
        {
          "internalType": "uint256",
          "name": "",
          "type": "uint256"
        }
      ],
      "stateMutability": "view",
      "type": "function"
    },
    {
      "inputs": [
        {
          "internalType": "address",
          "name": "owner",
          "type": "address"
        }
      ],
      "name": "getIdentityByOwner",
      "outputs": [
        {
          "internalType": "uint256",
          "name": "",
          "type": "uint256"
        }
      ],
      "stateMutability": "view",
      "type": "function"
    },
    {
      "inputs": [],
      "name": "getPendingRequests",
      "outputs": [
        {
          "internalType": "uint256[]",
          "name": "",
          "type": "uint256[]"
        }
      ],
      "stateMutability": "view",
      "type": "function"
    },
    {
      "inputs": [
        {
          "internalType": "uint256",
          "name": "requestId",
          "type": "uint256"
        }
      ],
      "name": "getRequestDetails",
      "outputs": [
        {
          "internalType": "address",
          "name": "requester",
          "type": "address"
        },
        {
          "internalType": "string",
          "name": "ipfsHash",
          "type": "string"
        },
        {
          "internalType": "uint256",
          "name": "requestedAt",
          "type": "uint256"
        },
        {
          "internalType": "bytes32",
          "name": "uniqueIdentityHash",
          "type": "bytes32"
        },
        {
          "internalType": "bool",
          "name": "isPending",
          "type": "bool"
        },
        {
          "internalType": "bool",
          "name": "isApproved",
          "type": "bool"
        },
        {
          "internalType": "bool",
          "name": "isRejected",
          "type": "bool"
        }
      ],
      "stateMutability": "view",
      "type": "function"
    },
    {
      "inputs": [
        {
          "internalType": "address",
          "name": "user",
          "type": "address"
        }
      ],
      "name": "getUserRequests",
      "outputs": [
        {
          "internalType": "uint256[]",
          "name": "",
          "type": "uint256[]"
        }
      ],
      "stateMutability": "view",
      "type": "function"
    },
    {
      "inputs": [
        {
          "internalType": "address",
          "name": "owner",
          "type": "address"
        }
      ],
      "name": "hasIdentity",
      "outputs": [
        {
          "internalType": "bool",
          "name": "",
          "type": "bool"
        }
      ],
      "stateMutability": "view",
      "type": "function"
    },
    {
      "inputs": [
        {
          "internalType": "address",
          "name": "addr",
          "type": "address"
        }
      ],
      "name": "isAdmin",
      "outputs": [
        {
          "internalType": "bool",
          "name": "",
          "type": "bool"
        }
      ],
      "stateMutability": "view",
      "type": "function"
    },
    {
      "inputs": [
        {
          "internalType": "bytes32",
          "name": "uniqueHash",
          "type": "bytes32"
        }
      ],
      "name": "isHashRegistered",
      "outputs": [
        {
          "internalType": "bool",
          "name": "",
          "type": "bool"
        }
      ],
      "stateMutability": "view",
      "type": "function"
    },
    {
      "inputs": [
        {
          "internalType": "uint256",
          "name": "idNumber",
          "type": "uint256"
        }
      ],
      "name": "isIdentityValid",
      "outputs": [
        {
          "internalType": "bool",
          "name": "",
          "type": "bool"
        }
      ],
      "stateMutability": "view",
      "type": "function"
    },
    {
      "inputs": [
        {
          "internalType": "address",
          "name": "verifier",
          "type": "address"
        }
      ],
      "name": "isVerifier",
      "outputs": [
        {
          "internalType": "bool",
          "name": "",
          "type": "bool"
        }
      ],
      "stateMutability": "view",
      "type": "function"
    },
    {
      "inputs": [],
      "name": "owner",
      "outputs": [
        {
          "internalType": "address",
          "name": "",
          "type": "address"
        }
      ],
      "stateMutability": "view",
      "type": "function"
    },
    {
      "inputs": [
        {
          "internalType": "uint256",
          "name": "requestId",
          "type": "uint256"
        },
        {
          "internalType": "string",
          "name": "reason",
          "type": "string"
        }
      ],
      "name": "rejectIDRequest",
      "outputs": [],
      "stateMutability": "nonpayable",
      "type": "function"
    },
    {
      "inputs": [
        {
          "internalType": "address",
          "name": "verifier",
          "type": "address"
        }
      ],
      "name": "removeVerifier",
      "outputs": [],
      "stateMutability": "nonpayable",
      "type": "function"
    },
    {
      "inputs": [],
      "name": "renounceOwnership",
      "outputs": [],
      "stateMutability": "nonpayable",
      "type": "function"
    },
    {
      "inputs": [
        {
          "internalType": "string",
          "name": "ipfsHash",
          "type": "string"
        },
        {
          "internalType": "string",
          "name": "idType",
          "type": "string"
        },
        {
          "internalType": "bytes32",
          "name": "uniqueHash",
          "type": "bytes32"
        }
      ],
      "name": "requestIdentity",
      "outputs": [
        {
          "internalType": "uint256",
          "name": "",
          "type": "uint256"
        }
      ],
      "stateMutability": "nonpayable",
      "type": "function"
    },
    {
      "inputs": [
        {
          "internalType": "uint256",
          "name": "idNumber",
          "type": "uint256"
        }
      ],
      "name": "revokeIdentity",
      "outputs": [],
      "stateMutability": "nonpayable",
      "type": "function"
    },
    {
      "inputs": [
        {
          "internalType": "address",
          "name": "newOwner",
          "type": "address"
        }
      ],
      "name": "transferOwnership",
      "outputs": [],
      "stateMutability": "nonpayable",
      "type": "function"
    },
    {
      "inputs": [
        {
          "internalType": "uint256",
          "name": "idNumber",
          "type": "uint256"
        },
        {
          "internalType": "string",
          "name": "newIpfsHash",
          "type": "string"
        }
      ],
      "name": "updateIdentityData",
      "outputs": [],
      "stateMutability": "nonpayable",
      "type": "function"
    },
    {
      "inputs": [
        {
          "internalType": "uint256",
          "name": "idNumber",
          "type": "uint256"
        }
      ],
      "name": "verifyIdentity",
      "outputs": [],
      "stateMutability": "nonpayable",
      "type": "function"
    },
    {
      "inputs": [
        {
          "internalType": "uint256",
          "name": "idNumber",
          "type": "uint256"
        },
        {
          "internalType": "bytes32",
          "name": "claimedHash",
          "type": "bytes32"
        }
      ],
      "name": "verifyIdentityHash",
      "outputs": [
        {
          "internalType": "bool",
          "name": "",
          "type": "bool"
        }
      ],
      "stateMutability": "view",
      "type": "function"
    }
  ],
  "bytecode": "0x60806040523480156200001157600080fd5b50604051620025723803806200257283398101604081905262000034916200017a565b33806200005b57604051631e4fbdf760e01b81526000600482015260240160405180910390fd5b62000066816200012a565b50600580546001600160a01b0319166001600160a01b03831690811790915533600081815260046020526040808220805460ff199081166001908117909255948352818320805490951617909355915190916000805160206200255283398151915291a26040516001600160a01b038216906000805160206200255283398151915290600090a26040516001600160a01b038216906000907f7e644d79422f17c01e4894b5f4f588d331ebfa28653d42ae832dc59e38c9798f908290a350620001ac565b600080546001600160a01b038381166001600160a01b0319831681178455604051919092169283917f8be0079c531659141344cd1fd0a4f28419497f9722a3daafe3b4186f6b6457e09190a35050565b6000602082840312156200018d57600080fd5b81516001600160a01b0381168114620001a557600080fd5b9392505050565b61239680620001bc6000396000f3fe608060405234801561001057600080fd5b506004361061018d5760003560e01c806385e3f058116100de578063b337cf7411610097578063d9884d6911610071578063d9884d69146103d6578063f05b24f8146103e9578063f2fde38b1461040b578063f34d4c631461041e57600080fd5b8063b337cf741461039d578063babb55c5146103b0578063ca2dfd0a146103c357600080fd5b806385e3f058146103045780638da5cb5b1461032a5780638f2839701461033b5780639000b3d61461034e5780639143bec714610361578063b203df401461037457600080fd5b8063331052181161014b5780636fe3c1b7116101255780636fe3c1b7146102c1578063715018a6146102d457806380a1f712146102dc57806380a9aed0146102f157600080fd5b8063331052181461025d5780633848cb1b146102895780636e9960c31461029c57600080fd5b80624273a814610192578063015143bd146101a757806303db8a1b146101da5780631dffcfc1146101fd578063237f1a211461021057806324d7806c1461023b575b600080fd5b6101a56101a0366004611dad565b610444565b005b6101c76101b5366004611df4565b60009081526003602052604090205490565b6040519081526020015b60405180910390f35b6101ed6101e8366004611df4565b61052f565b60405190151581526020016101d1565b6101c761020b366004611e29565b610598565b6101ed61021e366004611eaf565b6001600160a01b0316600090815260026020526040902054151590565b6101ed610249366004611eaf565b6005546001600160a01b0391821691161490565b6101ed61026b366004611eaf565b6001600160a01b031660009081526004602052604090205460ff1690565b6101a5610297366004611dad565b610822565b6005546001600160a01b03165b6040516001600160a01b0390911681526020016101d1565b6101c76102cf366004611ed1565b610941565b6101a5610d67565b6102e4610d7b565b6040516101d19190611ef3565b6101a56102ff366004611df4565b610e7c565b610317610312366004611df4565b611033565b6040516101d19796959493929190611f7d565b6000546001600160a01b03166102a9565b6101a5610349366004611eaf565b6111db565b6101a561035c366004611eaf565b6112fb565b6101ed61036f366004611ed1565b61142b565b6101c7610382366004611eaf565b6001600160a01b031660009081526002602052604090205490565b6102e46103ab366004611eaf565b61146e565b6101a56103be366004611df4565b6114da565b6101a56103d1366004611eaf565b611630565b6101c76103e4366004611fdc565b6117f7565b6101ed6103f7366004611df4565b600090815260036020526040902054151590565b6101a5610419366004611eaf565b611adb565b61043161042c366004611df4565b611b19565b6040516101d19796959493929190612049565b6000828152600160205260409020546001600160a01b03166104815760405162461bcd60e51b81526004016104789061209b565b60405180910390fd5b6000828152600160205260409020546001600160a01b03163314806104b057506005546001600160a01b031633145b61050e5760405162461bcd60e51b815260206004820152602960248201527f426c6f636b49443a2063616c6c6572206973206e6f7420746865206f776e65726044820152681037b91030b236b4b760b91b6064820152608401610478565b60008281526001602081905260409091200161052a8282612158565b505050565b600081815260016020526040812080546001600160a01b03166105555750600092915050565b600481015460ff1661056a5750600092915050565b600081600301541180156105815750806003015442115b1561058f5750600092915050565b50600192915050565b6005546000906001600160a01b031633146105c55760405162461bcd60e51b815260040161047890612218565b6001600160a01b0386166000908152600260205260409020541561063c5760405162461bcd60e51b815260206004820152602860248201527f426c6f636b49443a2077616c6c657420616c72656164792068617320616e204960448201526711081b5a5b9d195960c21b6064820152608401610478565b600082815260036020526040902054156106b75760405162461bcd60e51b815260206004820152603660248201527f426c6f636b49443a206964656e746974792077697468207468697320756e69716044820152757565206861736820616c72656164792065786973747360501b6064820152608401610478565b600980549060006106c783612263565b90915550506009546000856106dd5760006106e7565b6106e7864261227c565b6040805160e0810182526001600160a01b038b8116825260208083018c815242848601526060840186905260016080850181905260a085018c905260c085018b905260008981529281905294909120835181546001600160a01b031916931692909217825551939450909290918201906107619082612158565b506040820151600282015560608201516003820155608082015160048201805460ff191691151591909117905560a082015160058201906107a29082612158565b5060c091909101516006909101556001600160a01b03881660008181526002602090815260408083208690558783526003909152908190208490555183907fbd27909c67c91939464f41921042365c32ad6f03b838971a903f1ec93535be639061080f908990899061228f565b60405180910390a3509695505050505050565b6005546001600160a01b0316331461084c5760405162461bcd60e51b815260040161047890612218565b6000828152600760205260409020546001600160a01b03166108805760405162461bcd60e51b8152600401610478906122b1565b60008281526007602052604090206004015460ff166108e15760405162461bcd60e51b815260206004820152601f60248201527f426c6f636b49443a2072657175657374206973206e6f742070656e64696e67006044820152606401610478565b60008281526007602052604090819020600401805462ff00ff19166201000017905551339083907f7678b28e891da17989984580cd4c63fc5bd22645ab56d62ff08d18e1715b020c906109359085906122e8565b60405180910390a35050565b6005546000906001600160a01b0316331461096e5760405162461bcd60e51b815260040161047890612218565b6000838152600760205260409020546001600160a01b03166109a25760405162461bcd60e51b8152600401610478906122b1565b60008381526007602052604090206004015460ff16610a035760405162461bcd60e51b815260206004820152601f60248201527f426c6f636b49443a2072657175657374206973206e6f742070656e64696e67006044820152606401610478565b60008381526007602052604081208054600190910180546001600160a01b039092169291610a30906120d0565b80601f0160208091040260200160405190810160405280929190818152602001828054610a5c906120d0565b8015610aa95780601f10610a7e57610100808354040283529160200191610aa9565b820191906000526020600020905b815481529060010190602001808311610a8c57829003601f168201915b505050600088815260076020526040902060030154929350610ae691508490506001600160a01b0316600090815260026020526040902054151590565b15610b3f5760405162461bcd60e51b8152602060048201526024808201527f426c6f636b49443a2072657175657374657220616c72656164792068617320616044820152631b88125160e21b6064820152608401610478565b60008181526003602052604090205415610b6b5760405162461bcd60e51b8152600401610478906122fb565b60098054906000610b7b83612263565b9091555050600954600086610b91576000610b9b565b610b9b874261227c565b6040805160e0810182526001600160a01b038881168252602080830189815242848601526060840186905260016080850181905285518087018752600b81526a1c195c9cdbdb985b17da5960aa1b8185015260a086015260c085018a905260008981529281905294909120835181546001600160a01b03191693169290921782555193945090929091820190610c319082612158565b506040820151600282015560608201516003820155608082015160048201805460ff191691151591909117905560a08201516005820190610c729082612158565b5060c091909101516006909101556001600160a01b0385166000908152600260209081526040808320859055858352600382528083208590558a83526007909152808220600401805461ffff191661010017905551339184918b917f074ce4a9f64aee00cf0bceb9a82029ee84dcf85f7ed149bbb1bfed6251cb66b391a4846001600160a01b0316827fbd27909c67c91939464f41921042365c32ad6f03b838971a903f1ec93535be6385604051610d5291906040808252600b908201526a1c195c9cdbdb985b17da5960aa1b6060820152602081019190915260800190565b60405180910390a35093505050505b92915050565b610d6f611c3f565b610d796000611c6c565b565b6060600060015b6006548111610dc55760008181526007602052604090206004015460ff1615610db35781610daf81612263565b9250505b80610dbd81612263565b915050610d82565b5060008167ffffffffffffffff811115610de157610de1611d0a565b604051908082528060200260200182016040528015610e0a578160200160208202803683370190505b509050600060015b6006548111610e735760008181526007602052604090206004015460ff1615610e615780838381518110610e4857610e4861234a565b602090810291909101015281610e5d81612263565b9250505b80610e6b81612263565b915050610e12565b50909392505050565b6000818152600160205260409020546001600160a01b0316610eb05760405162461bcd60e51b81526004016104789061209b565b6000818152600160205260409020546001600160a01b0316331480610ee457503360009081526004602052604090205460ff165b80610f08575033610efd6000546001600160a01b031690565b6001600160a01b0316145b80610f1d57506005546001600160a01b031633145b610f735760405162461bcd60e51b815260206004820152602160248201527f426c6f636b49443a2063616c6c6572206973206e6f7420617574686f72697a656044820152601960fa1b6064820152608401610478565b600081815260016020818152604080842080546001600160a01b031685526002835281852085905560068101548552600383529084208490558484529082905280546001600160a01b03191681559190610fcf90830182611cbc565b6000600283018190556003830181905560048301805460ff19169055610ff9906005840190611cbc565b506000600691909101819055604051339183917f7b0104bb092ce7f934da29f0c0dcb9fa85e71475aca2777258facd66dca4dc6e9190a350565b60008181526001602052604081208054606091839182918291859183916001600160a01b03166110755760405162461bcd60e51b81526004016104789061209b565b805460028201546003830154600484015460068501546001860180546001600160a01b03909616959094939260ff1691600588019186906110b5906120d0565b80601f01602080910402602001604051908101604052809291908181526020018280546110e1906120d0565b801561112e5780601f106111035761010080835404028352916020019161112e565b820191906000526020600020905b81548152906001019060200180831161111157829003601f168201915b50505050509550818054611141906120d0565b80601f016020809104026020016040519081016040528092919081815260200182805461116d906120d0565b80156111ba5780601f1061118f576101008083540402835291602001916111ba565b820191906000526020600020905b81548152906001019060200180831161119d57829003601f168201915b50505050509150975097509750975097509750975050919395979092949650565b6111e3611c3f565b6001600160a01b0381166112345760405162461bcd60e51b8152602060048201526018602482015277426c6f636b49443a20696e76616c6964206164647265737360401b6044820152606401610478565b600580546001600160a01b038381166001600160a01b0319831681179093556000928352600460205260409092205491169060ff166112b7576001600160a01b038216600081815260046020526040808220805460ff19166001179055517f6d05492139c5ea989514a5d2150c028041e5c087e2a39967f67dc7d2655adb819190a25b816001600160a01b0316816001600160a01b03167f7e644d79422f17c01e4894b5f4f588d331ebfa28653d42ae832dc59e38c9798f60405160405180910390a35050565b6005546001600160a01b031633146113255760405162461bcd60e51b815260040161047890612218565b6001600160a01b0381166113765760405162461bcd60e51b8152602060048201526018602482015277426c6f636b49443a20696e76616c6964206164647265737360401b6044820152606401610478565b6001600160a01b03811660009081526004602052604090205460ff16156113df5760405162461bcd60e51b815260206004820152601b60248201527f426c6f636b49443a20616c7265616479206120766572696669657200000000006044820152606401610478565b6001600160a01b038116600081815260046020526040808220805460ff19166001179055517f6d05492139c5ea989514a5d2150c028041e5c087e2a39967f67dc7d2655adb819190a250565b600082815260016020526040812080546001600160a01b03166114605760405162461bcd60e51b81526004016104789061209b565b600601548214905092915050565b6001600160a01b0381166000908152600860209081526040918290208054835181840281018401909452808452606093928301828280156114ce57602002820191906000526020600020905b8154815260200190600101908083116114ba575b50505050509050919050565b3360009081526004602052604090205460ff166115435760405162461bcd60e51b815260206004820152602160248201527f426c6f636b49443a2063616c6c6572206973206e6f74206120766572696669656044820152603960f91b6064820152608401610478565b6000818152600160205260409020546001600160a01b03166115775760405162461bcd60e51b81526004016104789061209b565b60008181526001602052604090206004015460ff16156115e45760405162461bcd60e51b815260206004820152602260248201527f426c6f636b49443a206964656e7469747920616c726561647920766572696669604482015261195960f21b6064820152608401610478565b6000818152600160208190526040808320600401805460ff191690921790915551339183917fe96275f0447bef5005468923dc9eada51c5de314636b3a1bfde205e8fae3fe5c9190a350565b6005546001600160a01b0316331461165a5760405162461bcd60e51b815260040161047890612218565b6001600160a01b03811660009081526004602052604090205460ff166116c25760405162461bcd60e51b815260206004820152601760248201527f426c6f636b49443a206e6f7420612076657269666965720000000000000000006044820152606401610478565b6005546001600160a01b03908116908216036117315760405162461bcd60e51b815260206004820152602860248201527f426c6f636b49443a2063616e6e6f742072656d6f76652061646d696e206173206044820152673b32b934b334b2b960c11b6064820152608401610478565b6000546001600160a01b03166001600160a01b0316816001600160a01b0316036117ae5760405162461bcd60e51b815260206004820152602860248201527f426c6f636b49443a2063616e6e6f742072656d6f7665206f776e6572206173206044820152673b32b934b334b2b960c11b6064820152608401610478565b6001600160a01b038116600081815260046020526040808220805460ff19169055517f44a3cd4eb5cc5748f6169df057b1cb2ae4c383e87cd94663c430e095d4cba4249190a250565b336000908152600260205260408120541561185e5760405162461bcd60e51b815260206004820152602160248201527f426c6f636b49443a2077616c6c657420616c72656164792068617320616e20496044820152601160fa1b6064820152608401610478565b6000828152600360205260409020541561188a5760405162461bcd60e51b8152600401610478906122fb565b60005b33600090815260086020526040902054811015611983573360009081526008602052604081208054839081106118c5576118c561234a565b6000918252602080832090910154808352600790915260409091206004015490915060ff168015611906575060008181526007602052604090206003015484145b156119705760405162461bcd60e51b815260206004820152603460248201527f426c6f636b49443a2061207265717565737420776974682074686973206861736044820152736820697320616c72656164792070656e64696e6760601b6064820152608401610478565b508061197b81612263565b91505061188d565b506006805490600061199483612263565b90915550506006546040805160e0810182523381526020808201888152428385015260608301879052600160808401819052600060a0850181905260c08501819052868152600790935293909120825181546001600160a01b0319166001600160a01b0390911617815590519192909190820190611a129082612158565b5060408281015160028301556060830151600383015560808301516004909201805460a085015160c0909501511515620100000262ff0000199515156101000261ff00199515159590951661ffff1990921691909117939093179390931691909117909155336000818152600860209081528382208054600181018255908352912001839055905182907fa927bf335c0c5e1b2651cad05dc5c13203d264065c5d000505bd0a9407f9ad5090611acb9087815260200190565b60405180910390a3949350505050565b611ae3611c3f565b6001600160a01b038116611b0d57604051631e4fbdf760e01b815260006004820152602401610478565b611b1681611c6c565b50565b60008181526007602052604081208054606091839182918291829182916001600160a01b0316611b5b5760405162461bcd60e51b8152600401610478906122b1565b80546002820154600383015460048401546001850180546001600160a01b03909516949093929160ff808216926101008304821692620100009004909116908690611ba5906120d0565b80601f0160208091040260200160405190810160405280929190818152602001828054611bd1906120d0565b8015611c1e5780601f10611bf357610100808354040283529160200191611c1e565b820191906000526020600020905b815481529060010190602001808311611c0157829003601f168201915b50505050509550975097509750975097509750975050919395979092949650565b6000546001600160a01b03163314610d795760405163118cdaa760e01b8152336004820152602401610478565b600080546001600160a01b038381166001600160a01b0319831681178455604051919092169283917f8be0079c531659141344cd1fd0a4f28419497f9722a3daafe3b4186f6b6457e09190a35050565b508054611cc8906120d0565b6000825580601f10611cd8575050565b601f016020900490600052602060002090810190611b1691905b80821115611d065760008155600101611cf2565b5090565b634e487b7160e01b600052604160045260246000fd5b600082601f830112611d3157600080fd5b813567ffffffffffffffff80821115611d4c57611d4c611d0a565b604051601f8301601f19908116603f01168101908282118183101715611d7457611d74611d0a565b81604052838152866020858801011115611d8d57600080fd5b836020870160208301376000602085830101528094505050505092915050565b60008060408385031215611dc057600080fd5b82359150602083013567ffffffffffffffff811115611dde57600080fd5b611dea85828601611d20565b9150509250929050565b600060208284031215611e0657600080fd5b5035919050565b80356001600160a01b0381168114611e2457600080fd5b919050565b600080600080600060a08688031215611e4157600080fd5b611e4a86611e0d565b9450602086013567ffffffffffffffff80821115611e6757600080fd5b611e7389838a01611d20565b9550604088013594506060880135915080821115611e9057600080fd5b50611e9d88828901611d20565b95989497509295608001359392505050565b600060208284031215611ec157600080fd5b611eca82611e0d565b9392505050565b60008060408385031215611ee457600080fd5b50508035926020909101359150565b6020808252825182820181905260009190848201906040850190845b81811015611f2b57835183529284019291840191600101611f0f565b50909695505050505050565b6000815180845260005b81811015611f5d57602081850181015186830182015201611f41565b506000602082860101526020601f19601f83011685010191505092915050565b6001600160a01b038816815260e060208201819052600090611fa190830189611f37565b876040840152866060840152851515608084015282810360a0840152611fc78186611f37565b9150508260c083015298975050505050505050565b600080600060608486031215611ff157600080fd5b833567ffffffffffffffff8082111561200957600080fd5b61201587838801611d20565b9450602086013591508082111561202b57600080fd5b5061203886828701611d20565b925050604084013590509250925092565b6001600160a01b038816815260e06020820181905260009061206d90830189611f37565b60408301979097525060608101949094529115156080840152151560a0830152151560c09091015292915050565b6020808252818101527f426c6f636b49443a206964656e7469747920646f6573206e6f74206578697374604082015260600190565b600181811c908216806120e457607f821691505b60208210810361210457634e487b7160e01b600052602260045260246000fd5b50919050565b601f82111561052a57600081815260208120601f850160051c810160208610156121315750805b601f850160051c820191505b818110156121505782815560010161213d565b505050505050565b815167ffffffffffffffff81111561217257612172611d0a565b6121868161218084546120d0565b8461210a565b602080601f8311600181146121bb57600084156121a35750858301515b600019600386901b1c1916600185901b178555612150565b600085815260208120601f198616915b828110156121ea578886015182559484019460019091019084016121cb565b50858210156122085787850151600019600388901b60f8161c191681555b5050505050600190811b01905550565b6020808252818101527f426c6f636b49443a2063616c6c6572206973206e6f74207468652061646d696e604082015260600190565b634e487b7160e01b600052601160045260246000fd5b6000600182016122755761227561224d565b5060010190565b80820180821115610d6157610d6161224d565b6040815260006122a26040830185611f37565b90508260208301529392505050565b6020808252601f908201527f426c6f636b49443a207265717565737420646f6573206e6f7420657869737400604082015260600190565b602081526000611eca6020830184611f37565b6020808252602f908201527f426c6f636b49443a206964656e7469747920776974682074686973206861736860408201526e20616c72656164792065786973747360881b606082015260800190565b634e487b7160e01b600052603260045260246000fdfea264697066735822122056845a4aaccb80289b5fb461f064d887bd7b6671484d99b63db35464d6ba690764736f6c634300081400336d05492139c5ea989514a5d2150c028041e5c087e2a39967f67dc7d2655adb81",
  "linkReferences": {},
  "deployedLinkReferences": {}
}